:020000040000FA
:100000000C945E000C9486000C9486000C94860080
:100010000C9486000C9486000C9486000C949B0231
:100020000C9486000C9486000C9486000C94860038
:100030000C9486000C9486000C9486000C94860028
:100040000C9451020C9486000C941D030C94F7023E
:100050000C9486000C9486000C9486000C94860008
:100060000C9486000C948600020000000800020137
:100070000000030407000000000000000000000072
:1000800000250028002B0000000000240027002A83
:100090000004040404040404040202020202020331
:1000A000030303030301020408102040800102043B
:1000B00008102001020408102000710611241FBE40
:1000C000CFEFD8E0DEBFCDBF12E0A0E0B1E0ECEAB8
:1000D000F0E102C005900D92A630B107D9F722E0F9
:1000E000A6E0B2E001C01D92AD3BB207E1F710E01F
:1000F000CEE5D0E004C02197FE010E943F08CD3537
:10010000D107C9F70E944F030C9454080C940000C7
:1001100090E0FC01EB55FF4F24918F569F4FFC015F
:100120008491882399F090E0880F991FFC01E9578A
:10013000FF4FA591B491FC01E358FF4F8591949135
:100140008FB7F894EC91E22BEC938FBF089590E079
:10015000FC01E759FF4F2491FC01EB55FF4F34910F
:10016000FC01EF56FF4FE491EE23C9F0222339F052
:10017000233001F1A8F4213019F1223029F1F0E007
:10018000EE0FFF1FE358FF4FA591B4918FB7F8947E
:10019000EC91611126C030953E233C938FBF0895AA
:1001A0002730A9F02830C9F0243049F78091800029
:1001B0008F7D03C0809180008F7780938000DFCF98
:1001C00084B58F7784BDDBCF84B58F7DFBCF8091E5
:1001D000B0008F778093B000D2CF8091B0008F7D38
:1001E000F9CF3E2BDACF3FB7F8948091B9029091C6
:1001F000BA02A091BB02B091BC0226B5A89B05C073
:100200002F3F19F00196A11DB11D3FBFBA2FA92F95
:10021000982F8827BC01CD01620F711D811D911D92
:1002200042E0660F771F881F991F4A95D1F70895FE
:100230009091000189130BC0E8E6F0E0E4919FEF94
:1002400090930001E13049F028F0E23061F060E085
:100250000C94A70010926E00FACF90916F009D7FD2
:1002600090936F00F4CF909170009D7F90937000F9
:1002700091E09093B0009091B100987F946090933A
:10028000B1001092B300E3CFAF92BF92CF92DF9252
:10029000EF92FF920F931F93CF93DF936C017B013B
:1002A0008B01040F151FEB015E01AE18BF08C017CC
:1002B000D10759F06991D601ED91FC910190F0813F
:1002C000E02DC6010995892B79F7C501DF91CF9102
:1002D0001F910F91FF90EF90DF90CF90BF90AF9064
:1002E0000895FC01538D448D252F30E0842F90E03C
:1002F000821B930B541710F0CF9608950197089521
:10030000FC01918D828D981761F0A28DAE0FBF2FE9
:10031000B11D5D968C91928D9F5F9F73928F90E03F
:1003200008958FEF9FEF0895FC01918D828D9817AE
:1003300031F0828DE80FF11D858D90E008958FEFEB
:100340009FEF0895FC01918D228D892F90E0805CB4
:100350009F4F821B91098F739927089587E192E03F
:100360000E94A20121E0892B09F420E0822F089548
:1003700080E090E0892B29F00E94AE0181110C945D
:1003800000000895FC01A48DA80FB92FB11DA35A38
:10039000BF4F2C91848D90E001968F739927848FA5
:1003A000A689B7892C93A089B1898C9183708064C8
:1003B0008C93938D848D981306C00288F389E02D69
:1003C00080818F7D80830895EF92FF920F931F931A
:1003D000CF93DF93EC0181E0888F9B8D8C8D9813F8
:1003E0001AC0E889F989808185FF15C09FB7F89404
:1003F000EE89FF896083E889F98980818370806450
:1004000080839FBF81E090E0DF91CF911F910F919A
:10041000FF90EF900895F62E0B8D10E00F5F1F4FA9
:100420000F731127E02E8C8D8E110CC00FB607FCB8
:10043000FACFE889F989808185FFF5CFCE010E9446
:10044000C201F1CFEB8DEC0FFD2FF11DE35AFF4FF1
:10045000F0829FB7F8940B8FEA89FB8980818062D4
:10046000CFCFCF93DF93EC01888D8823B9F0AA8991
:10047000BB89E889F9898C9185FD03C0808186FD5F
:100480000DC00FB607FCF7CF8C9185FFF2CF8081AE
:1004900085FFEDCFCE010E94C201E9CFDF91CF9160
:1004A00008951F920F920FB60F9211242F933F932E
:1004B0008F939F93AF93BF938091B5029091B602B3
:1004C000A091B702B091B8023091B40223E0230F9B
:1004D0002D3758F50196A11DB11D2093B4028093CC
:1004E000B5029093B602A093B702B093B802809180
:1004F000B9029091BA02A091BB02B091BC020196E0
:10050000A11DB11D8093B9029093BA02A093BB02C2
:10051000B093BC02BF91AF919F918F913F912F916A
:100520000F900FBE0F901F90189526E8230F02968C
:10053000A11DB11DD2CF1F920F920FB60F921124A1
:100540002F933F934F935F936F937F938F939F93DB
:10055000AF93BF93EF93FF9380910B0290910C02A6
:10056000A0910D02B0910E02892B8A2B8B2BD1F119
:1005700090910602E0910702F0910802808189279C
:10058000808380910B0290910C02A0910D02B0919A
:100590000E02181619061A061B069CF480910B020F
:1005A00090910C02A0910D02B0910E020197A10949
:1005B000B10980930B0290930C02A0930D02B093AB
:1005C0000E02FF91EF91BF91AF919F918F917F911B
:1005D0006F915F914F913F912F910F900FBE0F90B0
:1005E0001F901895809100010E941801EACF1F9278
:1005F0000F920FB60F9211242F933F934F935F9357
:100600006F937F938F939F93AF93BF93EF93FF93DA
:1006100087E192E00E94C201FF91EF91BF91AF91FB
:100620009F918F917F916F915F914F913F912F910A
:100630000F900FBE0F901F9018951F920F920FB63C
:100640000F9211242F938F939F93EF93FF93E09139
:100650002702F09128028081E0912D02F0912E0274
:1006600082FD1BC09081809130028F5F8F7320913B
:100670003102821741F0E0913002F0E0E95EFD4F77
:10068000958F80933002FF91EF919F918F912F91E1
:100690000F900FBE0F901F9018958081F4CFCF93CD
:1006A000DF93CDB7DEB729970FB6F894DEBF0FBE44
:1006B000CDBF789484B5826084BD84B5816084BDEB
:1006C00085B5826085BD85B5816085BD80916E00F0
:1006D000816080936E001092810080918100826021
:1006E000809381008091810081608093810080915E
:1006F00080008160809380008091B100846080934D
:10070000B1008091B00081608093B00080917A0048
:10071000846080937A0080917A00826080937A006E
:1007200080917A00816080937A0080917A0080685D
:1007300080937A001092C100E0912702F091280284
:1007400082E08083E0912302F09124021082E09104
:100750002502F09126028FEC808310922F02E09107
:100760002B02F0912C0286E08083E0912902F09127
:100770002A02808180618083E0912902F0912A021F
:10078000808188608083E0912902F0912A02808133
:1007900080688083E0912902F0912A0280818F7D18
:1007A00080834BE050E067EF71E087E192E00E94C8
:1007B000440142E050E063E072E087E192E00E9491
:1007C00044018DE00E94880061E08DE00E94A70056
:1007D00085E891E09A838983E3E1F1E0F887EF838C
:1007E00089819A81E1E0873F9E0709F46AC2FC0192
:1007F00061917191FA83E98388EE93E00E94CF07BB
:100800008B012B01770F66087708EF81F88521901F
:100810003190F887EF8380910001823009F0C0C0E9
:10082000E8E6F0E0F491F987F7FDA4C182E00E94C8
:100830008800F985FF2321F02985223009F0BAC10B
:100840004101B12CA12C60E072E18AE790E0A501A2
:1008500091010E9405082B833C834D835E836901CF
:100860007A0181E0C81AD108E108F1089FEFC916A2
:10087000D104E104F10409F00CF454C160E472E421
:100880008FE090E0A50191010E94050869017A01BD
:10089000E1E0CE1AD108E108F108F985F23009F05B
:1008A000F5C082E02FEFC216D104E104F10409F093
:1008B0000CF46FC060E970ED83E090E0A501910158
:1008C0000E94050869017A0181E0C81AD108E1088F
:1008D000F10883E09FEFC916D104E104F10409F0A7
:1008E0000CF457C068E478EE81E090E0A501910136
:1008F0000E94050869017A01E1E0CE1AD108E108F9
:10090000F10884E0FFEFCF16D104E104F10409F00F
:100910000CF43FC064E274EF80E090E0A501940124
:100920000E94050869017A0181E0C81AD108E1082E
:10093000F10885E0EFEFCE16D104E104F10449F1AE
:1009400040F162E17AE780E090E0A50194010E9425
:10095000050869017A0181E0C81AD108E108F108A7
:1009600086E09FEFC916D104E104F10491F088F00C
:10097000CB80DC80ED80FE809AE0F594E794D794FC
:10098000C7949A95D1F781E0C81AD108E108F10817
:1009900087E09091B100987F892B8093B100CAC005
:1009A0008F3F09F0E7C082E080930001E8E6F0E0C5
:1009B000F491F987FF3F09F4DDC0F13029F150F0DF
:1009C000F23009F440C0298527FDD4C082E00E949E
:1009D000880032CF14BC15BC84B5826084BD85B557
:1009E000816085BDE3E9F0E08491E82FF0E0EE0F4F
:1009F000FF1FE358FF4F85919491E7EAF0E084915F
:100A000080930A02198612CF109280001092810002
:100A10008091810088608093810080918100816055
:100A200080938100E3E9F0E08491E82FF0E0EE0F9D
:100A3000FF1FE358FF4F85919491E7EAF0E084911E
:100A400080930902F3CE1092B0001092B100809111
:100A5000B00082608093B0008091B100816080938B
:100A6000B100E3E9F0E08491E82FF0E0EE0FFF1F22
:100A7000E358FF4F85919491909308028093070269
:100A8000E7EAF0E0849180930602D0CEEFEFCE1635
:100A9000D104E104F10409F00CF48AC068E478EEB2
:100AA00081E090E0A50191010E94050869017A01A9
:100AB000F1E0CF1AD108E108F108298584E021117D
:100AC00039CF83E02FEFC216D104E104F10471F1B4
:100AD0006CF162E17AE780E090E0A50194010E9468
:100AE000050869017A0191E0C91AD108E108F10805
:100AF00084E0EFEFCE16D104E104F104B9F0B0F0D8
:100B0000CB80DC80ED80FE808AE0F594E794D7947A
:100B1000C7948A95D1F791E0C91AD108E108F10884
:100B200085E004C081E0F985F11133CF95B5987F58
:100B3000892B85BD2FEF3FEFA901411451046104BA
:100B4000710409F061C08985813009F47BC082306D
:100B500009F48AC081110EC0C7BC209313023093E0
:100B60001402409315025093160280916E00826029
:100B700080936E00C301B2010E94D60626E636E6D7
:100B800046EA5FE30E943A070E949E066B01770FD8
:100B9000EE08FF080E94F3004B015C01C114D10470
:100BA000E104F10409F081C082E00E94180118CE2E
:100BB00082E0B9CFB12CA12C60E072E18AE790E02D
:100BC000A50191010E94050869017A0181E0C81A16
:100BD000D108E108F108C114D10491E0E906F1045B
:100BE00004F591E0F985F13009F0A4CF80918100FE
:100BF000887F892B809381002FEF3FEFA90141145B
:100C0000510461047104F1F09101220F331FD801E6
:100C10000E94240828EE33E040E050E00E94E30701
:100C200092CF68E478EE81E090E0A50191010E9406
:100C3000050869017A01E1E0CE1AD108E108F1085E
:100C400093E0D0CFD0928900C092880020930F0209
:100C500030931002409311025093120280916F0062
:100C6000826080936F0086CFC092B30020930B0206
:100C700030930C0240930D0250930E02809170004D
:100C800082608093700076CF91E0C91AD108E108A4
:100C9000F108E8EE8E0EE3E09E1EA11CB11CC1140B
:100CA000D104E104F10409F479CF0E94F30068193A
:100CB00079098A099B09683E73408105910520F7EF
:100CC0006DCF60E08DE00E94A70000E010E001150C
:100CD0001105E9F30E94AE018823C9F30E940000C8
:100CE000F6CFE7E1F2E01382128288EE93E0A0E013
:100CF000B0E084839583A683B78385E091E09183F8
:100D0000808385EC90E09587848784EC90E09787DA
:100D1000868780EC90E0918B808B81EC90E0938BC8
:100D2000828B82EC90E0958B848B86EC90E0978BA5
:100D3000868B118E128E138E148E08950E94A50636
:100D40006894B1110C94340708950E94190788F033
:100D50009F5798F0B92F9927B751B0F0E1F0660F7F
:100D6000771F881F991F1AF0BA95C9F714C0B130C0
:100D700091F00E943307B1E008950C943307672F78
:100D8000782F8827B85F39F0B93FCCF386957795EF
:100D90006795B395D9F73EF49095809570956195D8
:100DA0007F4F8F4F9F4F0895E89409C097FB3EF403
:100DB00090958095709561957F4F8F4F9F4F9923A8
:100DC000A9F0F92F96E9BB279395F6958795779526
:100DD0006795B795F111F8CFFAF4BB0F11F460FFE6
:100DE0001BC06F5F7F4F8F4F9F4F16C0882311F03E
:100DF00096E911C0772321F09EE8872F762F05C052
:100E0000662371F096E8862F70E060E02AF09A95EC
:100E1000660F771F881FDAF7880F9695879597F9E1
:100E2000089557FD9058440F551F59F05F3F71F0DA
:100E30004795880F97FB991F61F09F3F79F0879541
:100E40000895121613061406551FF2CF4695F1DFCA
:100E500008C0161617061806991FF1CF869571055A
:100E6000610508940895E894BB2766277727CB018E
:100E700097F908950E944D070C94BE070E94B00791
:100E800038F00E94B70720F0952311F00C94A707C3
:100E90000C94AD0711240C9434070E94110770F3D1
:100EA000959FC1F3950F50E0551F629FF001729F0F
:100EB000BB27F00DB11D639FAA27F00DB11DAA1F1E
:100EC000649F6627B00DA11D661F829F2227B00D6B
:100ED000A11D621F739FB00DA11D621F839FA00DF6
:100EE000611D221F749F3327A00D611D231F849F46
:100EF000600D211D822F762F6A2F11249F5750409D
:100F00009AF0F1F088234AF0EE0FFF1FBB1F661F17
:100F1000771F881F91505040A9F79E3F510580F0E0
:100F20000C94A7070C9434075F3FE4F3983ED4F386
:100F3000869577956795B795F795E7959F5FC1F784
:100F4000FE2B880F911D9695879597F9089597F92F
:100F50009F6780E870E060E008959FEF80EC08955F
:100F600000240A9416161706180609060895002488
:100F70000A9412161306140605060895092E039402
:100F8000000C11F4882352F0BB0F40F4BF2B11F476
:100F900060FF04C06F5F7F4F8F4F9F4F089597FB97
:100FA000072E16F4009407D077FD09D00E942B0875
:100FB00007FC05D03EF4909581959F4F089570955C
:100FC00061957F4F0895A1E21A2EAA1BBB1BFD015C
:100FD0000DC0AA1FBB1FEE1FFF1FA217B307E40718
:100FE000F50720F0A21BB30BE40BF50B661F771F70
:100FF000881F991F1A9469F7609570958095909550
:101000009B01AC01BD01CF010895052E97FB1EF495
:1010100000940E941C0857FD07D00E94E30707FCBC
:1010200003D04EF40C941C085095409530952195B2
:101030003F4F4F4F5F4F0895909580957095619504
:101040007F4F8F4F9F4F08950E944508B7FF089527
:10105000821B930B0895AA1BBB1B51E107C0AA1F5B
:10106000BB1FA617B70710F0A61BB70B881F991F49
:101070005A95A9F780959095BC01CD010895EE0F82
:10108000FF1F0590F491E02D0994A29FB001B39F3A
:10109000C001A39F700D811D1124911DB29F700D81
:1010A000811D1124911D0895F894FFCFFF000000C9
:1010B00000E401440171013102A20180019401DCCC
:1010C00000DC000601DC002601DC004A01260106E6
:1010D0000106014A010601880106014A010601C410
:1010E00000C400F700C4000601C40026010601AFD9
:1010F00000AF00DC00AF000601AF000601F700DC26
:1011000000DC00DC00DC00C4000601DC00DC00DCEC
:1011100000DC00C400A500DC00DC00DC00DC00C456
:10112000000601DC00DC00DC00DC00DC00DC00DCB4
:10113000000800080008000800080008000800086F
:10114000000800080008000800080008000800085F
:10115000000800080008000800080008000800084F
:10116000000800080008000800080008000800083F
:10117000000600060006000600080008000600063B
:10118000000600060008000800060006000600062B
:101190000008000800060006000600100008001005
:1011A0000008004C6574277320726F636B2E000D6E
:0211B0000A0033
:107E0000112484B714BE81FFF0D085E080938100F7
:107E100082E08093C00088E18093C10086E0809377
:107E2000C20080E18093C4008EE0C9D0259A86E02C
:107E300020E33CEF91E0309385002093840096BBD3
:107E4000B09BFECF1D9AA8958150A9F7CC24DD24C4
:107E500088248394B5E0AB2EA1E19A2EF3E0BF2EE7
:107E6000A2D0813461F49FD0082FAFD0023811F036
:107E7000013811F484E001C083E08DD089C08234E0
:107E800011F484E103C0853419F485E0A6D080C0E4
:107E9000853579F488D0E82EFF2485D0082F10E0AE
:107EA000102F00270E291F29000F111F8ED06801E7
:107EB0006FC0863521F484E090D080E0DECF843638
:107EC00009F040C070D06FD0082F6DD080E0C81688
:107ED00080E7D80618F4F601B7BEE895C0E0D1E017
:107EE00062D089930C17E1F7F0E0CF16F0E7DF06D8
:107EF00018F0F601B7BEE89568D007B600FCFDCFD4
:107F0000A601A0E0B1E02C9130E011968C91119780
:107F100090E0982F8827822B932B1296FA010C0160
:107F200087BEE89511244E5F5F4FF1E0A038BF0790
:107F300051F7F601A7BEE89507B600FCFDCF97BE46
:107F4000E89526C08437B1F42ED02DD0F82E2BD052
:107F50003CD0F601EF2C8F010F5F1F4F84911BD097
:107F6000EA94F801C1F70894C11CD11CFA94CF0C13
:107F7000D11C0EC0853739F428D08EE10CD085E9AC
:107F80000AD08FE07ACF813511F488E018D01DD067
:107F900080E101D065CF982F8091C00085FFFCCF94
:107FA0009093C60008958091C00087FFFCCF809118
:107FB000C00084FD01C0A8958091C6000895E0E648
:107FC000F0E098E1908380830895EDDF803219F02E
:107FD00088E0F5DFFFCF84E1DECF1F93182FE3DFCA
:107FE0001150E9F7F2DF1F91089580E0E8DFEE27F6
:047FF000FF270994CA
:027FFE00040479
:00000001FF
