:100000000C945E000C9486000C9486000C94860080
:100010000C9486000C9486000C9486000C94580571
:100020000C9486000C9486000C9486000C94860038
:100030000C9486000C9486000C9486000C94860028
:100040000C940E050C9486000C94DA050C94B405FF
:100050000C9486000C9486000C9486000C94860008
:100060000C9486000C948600000000080002010039
:100070000003040700000000000000000200000070
:1000800000250028002B0000000000240027002A83
:100090000004040404040404040202020202020331
:1000A000030303030301020408102040800102043B
:1000B00008102001020408102000CE0711241FBEE2
:1000C000CFEFD8E0DEBFCDBF11E0A0E0B1E0EAEABB
:1000D000F4E102C005900D92AA36B107D9F722E0EB
:1000E000AAE6B1E001C01D92A732B207E1F710E025
:1000F000CEE5D0E004C02197FE010E944D0ACD3527
:10010000D107C9F70E940C060C94530A0C94000006
:1001100090E0FC01EB55FF4F24918F569F4FFC015F
:100120008491882399F090E0880F991FFC01E9578A
:10013000FF4FA591B491FC01E358FF4F8591949135
:100140008FB7F894EC91E22BEC938FBF08954F9208
:100150005F926F927F928F929F92AF92BF92CF9257
:10016000DF92EF92FF920F931F93CF93DF9300D014
:1001700000D01F92CDB7DEB78C012A013B018091E0
:1001800002018230C9F08F3F09F47EC00F900F90BA
:100190000F900F900F90DF91CF911F910F91FF90D3
:1001A000EF90DF90CF90BF90AF909F908F907F9017
:1001B0006F905F904F900895ECE7F0E084918D830D
:1001C00087FDE4CF82E00E9488008D81882321F0A2
:1001D0009D81923009F05BC14801B12CA12C60E0F7
:1001E00072E18AE790E0A50198010E94FB0729834C
:1001F0003A834B835C8369017A0181E0C81AD10894
:10020000E108F1089FEFC916D104E104F10409F0F7
:100210000CF412C160E472E48FE090E0A501980153
:100220000E94FB0769017A0181E0C81AD108E10840
:10023000F1089D81923009F097C08FEFC816D10464
:10024000E104F10409F00CF4DCC160E970ED83E035
:1002500090E0A50198010E94FB0769017A0191E0F5
:10026000C91AD108E108F1088FEFC816D104E104DA
:10027000F10411F00CF0A2C183E09091B100987FDD
:10028000892B8093B100E0C082E080930201ECE70B
:10029000F0E094919D839F3F09F478CF913021F154
:1002A00050F0923009F43EC08D8187FD6FCF82E01F
:1002B0000E9488008DCF14BC15BC84B5826084BDBB
:1002C00085B5816085BDE3E9F0E0E491F0E0EE0FF3
:1002D000FF1FE358FF4F85919491E7EAF0E0E49126
:1002E000E0931A021D826ECF10928000109281005E
:1002F000809181008860809381008091810081607D
:1003000080938100E3E9F0E0E491F0E0EE0FFF1F5D
:10031000E358FF4F85919491E7EAF0E0E491E09390
:10032000190250CF1092B0001092B1008091B0002D
:1003300082608093B0008091B10081608093B100B1
:10034000E3E9F0E0E491F0E0EE0FFF1FE358FF4F28
:10035000859194919093180280931702E7EAF0E058
:10036000E491E09316022ECF9FEFC916D104E10469
:10037000F10409F00CF489C068E478EE81E090E0C3
:10038000A50198010E94FB0769017A0181E0C81A62
:10039000D108E108F1089D81992309F428C19FEF54
:1003A000C916D104E104F10409F00CF41EC162E1A4
:1003B0007AE780E090E0A50194010E94FB076901C3
:1003C0007A0181E0C81AD108E108F1089D819923DA
:1003D00009F4EBC08FEFC816D104E104F10411F069
:1003E00008F0BFC086E049CF64E274EF80E090E09F
:1003F000A50194010E94FB0769017A0181E0C81AF6
:10040000D108E108F10885E09FEFC916D104E104A5
:10041000F10409F008F431CF62E17AE780E090E07E
:10042000A50194010E94FB0769017A0191E0C91AB4
:10043000D108E108F108CECF81E09D8191111DCF57
:1004400095B5987F892B85BD2FEF3FEFA90141140A
:1004500051046104710409F043C09D81913009F495
:100460005EC0923009F46DC0911190CEC7BC20934C
:100470002302309324024093250250932602809158
:100480006E00826080936E0081CE82E0D6CFB12C68
:10049000A12C60E072E18AE790E0A50198010E943A
:1004A000FB0769017A0181E0C81AD108E108F10867
:1004B000C114D10491E0E906F10404F591E08D81C5
:1004C000813011F680918100887F892B8093810093
:1004D0002FEF3FEFA9014114510461047104F9F0B9
:1004E000D801AA0FBB1FA30192010E941A0828EE8F
:1004F00033E040E050E00E942D08AFCF68E478EE92
:1005000081E090E0A50198010E94FB0769017A0152
:1005100081E0C81AD108E108F10893E0D0CFD09269
:100520008900C092880020931F02309320024093DC
:1005300021025093220280916F00826080936F00AD
:1005400025CEC092B30020931B0230931C0240932F
:100550001D0250931E028091700082608093700093
:1005600015CEC980DA80EB80FC809AE0F594E794A0
:10057000D794C7949A95D1F791E0C91AD108E108A8
:10058000F10887E07ACEC980DA80EB80FC808AE0CF
:10059000F594E794D794C7948A95D1F791E0C91A56
:1005A000D108E108F10885E04BCF8FEFC816D104E0
:1005B000E104F10409F038F784E042CF68E478EE12
:1005C00081E090E0A50198010E94FB0769017A0192
:1005D00091E0C91AD108E108F1088FEFC816D104DB
:1005E000E104F10411F00CF0FFCE84E046CE8FEF71
:1005F000C816D104E104F10411F00CF0D8CE83E068
:100600001FCF82E03ACE80E480937C0080917A0014
:10061000806480937A0080917A0086FDFCCF80917F
:10062000780090917900089590E0FC01E859FF4F1F
:100630002491FC01EB55FF4F3491FC01EF56FF4F25
:10064000E491EE23C9F0222339F0233001F1A8F41C
:10065000213019F1223029F1F0E0EE0FFF1FE358AD
:10066000FF4FA591B4918FB7F894EC91611126C01A
:1006700030953E233C938FBF08952730A9F0283052
:10068000C9F0243049F7809180008F7D03C08091AC
:1006900080008F7780938000DFCF84B58F7784BD13
:1006A000DBCF84B58F7DFBCF8091B0008F778093B7
:1006B000B000D2CF8091B0008F7DF9CF3E2BDACF42
:1006C0003FB7F8948091750190917601A0917701E0
:1006D000B091780126B5A89B05C02F3F19F001966F
:1006E000A11DB11D3FBFBA2FA92F982F8827BC018C
:1006F000CD01620F711D811D911D42E0660F771FB4
:10070000881F991F4A95D1F708958F929F92AF92B3
:10071000BF92CF92DF92EF92FF926B017C010E9419
:1007200060034B015C01C114D104E104F104B9F090
:100730000E946003681979098A099B09683E734021
:100740008105910580F321E0C21AD108E108F10882
:1007500088EE880E83E0981EA11CB11CE4CFFF90A8
:10076000EF90DF90CF90BF90AF909F908F900895C3
:100770009091020189130BC0ECE7F0E0E4919FEF48
:1007800090930201E13049F028F0E23061F060E03E
:100790000C94140310926E00FACF90916F009D7F1D
:1007A00090936F00F4CF909170009D7F90937000B4
:1007B00091E09093B0009091B100987F94609093F5
:1007C000B1001092B300E3CFAF92BF92CF92DF920D
:1007D000EF92FF920F931F93CF93DF936C017B01F6
:1007E0008B01040F151FEB015E01AE18BF08C01787
:1007F000D10759F06991D601ED91FC910190F081FA
:10080000E02DC6010995892B79F7C501DF91CF91BC
:100810001F910F91FF90EF90DF90CF90BF90AF901E
:100820000895FC01538D448D252F30E0842F90E0F6
:10083000821B930B541710F0CF96089501970895DB
:10084000FC01918D828D981761F0A28DAE0FBF2FA4
:10085000B11D5D968C91928D9F5F9F73928F90E0FA
:1008600008958FEF9FEF0895FC01918D828D981769
:1008700031F0828DE80FF11D858D90E008958FEFA6
:100880009FEF0895FC01918D228D892F90E0805C6F
:100890009F4F821B91098F739927089589E791E0F3
:1008A0000E94420421E0892B09F420E0822F089560
:1008B00080E090E0892B29F00E944E0481110C9475
:1008C00000000895FC01A48DA80FB92FB11DA35AF3
:1008D000BF4F2C91848D90E001968F739927848F60
:1008E000A689B7892C93A089B1898C918370806483
:1008F0008C93938D848D981306C00288F389E02D24
:1009000080818F7D80830895EF92FF920F931F93D4
:10091000CF93DF93EC0181E0888F9B8D8C8D9813B2
:100920001AC0E889F989808185FF15C09FB7F894BE
:10093000EE89FF896083E889F9898081837080640A
:1009400080839FBF81E090E0DF91CF911F910F9155
:10095000FF90EF900895F62E0B8D10E00F5F1F4F64
:100960000F731127E02E8C8D8E110CC00FB607FC73
:10097000FACFE889F989808185FFF5CFCE010E9401
:100980006204F1CFEB8DEC0FFD2FF11DE35AFF4F09
:10099000F0829FB7F8940B8FEA89FB89808180628F
:1009A000CFCFCF93DF93EC01888D8823B9F0AA894C
:1009B000BB89E889F9898C9185FD03C0808186FD1A
:1009C0000DC00FB607FCF7CF8C9185FFF2CF808169
:1009D00085FFEDCFCE010E946204E9CFDF91CF9178
:1009E0000895CF93DF93FC0101900020E9F7319740
:1009F000AF01481B590BBC0189E791E00E94E40359
:100A0000EC0142E050E065E371E089E791E00E948B
:100A1000E4038C0F9D1FDF91CF9108951F920F92D9
:100A20000FB60F9211242F933F938F939F93AF9301
:100A3000BF938091710190917201A0917301B09167
:100A400074013091700123E0230F2D3758F5019682
:100A5000A11DB11D209370018093710190937201CB
:100A6000A0937301B0937401809175019091760108
:100A7000A0917701B09178010196A11DB11D8093DD
:100A8000750190937601A0937701B0937801BF919F
:100A9000AF919F918F913F912F910F900FBE0F902B
:100AA0001F90189526E8230F0296A11DB11DD2CFE5
:100AB0001F920F920FB60F9211242F933F934F93D3
:100AC0005F936F937F938F939F93AF93BF93EF93B6
:100AD000FF9380911B0290911C02A0911D02B09186
:100AE0001E02892B8A2B8B2BD1F190911602E0915B
:100AF0001702F091180280818927808380911B0260
:100B000090911C02A0911D02B0911E0218161906A8
:100B10001A061B069CF480911B0290911C02A09166
:100B20001D02B0911E020197A109B10980931B0219
:100B300090931C02A0931D02B0931E02FF91EF91AF
:100B4000BF91AF919F918F917F916F915F914F91E5
:100B50003F912F910F900FBE0F901F90189580918D
:100B600002010E94B803EACF1F920F920FB60F92B4
:100B700011242F933F934F935F936F937F938F93A2
:100B80009F93AF93BF93EF93FF9389E791E00E9408
:100B90006204FF91EF91BF91AF919F918F917F91EF
:100BA0006F915F914F913F912F910F900FBE0F90DA
:100BB0001F9018951F920F920FB60F9211242F932A
:100BC0008F939F93EF93FF93E0918901F0918A01B6
:100BD0008081E0918F01F091900182FD1BC0908196
:100BE000809192018F5F8F7320919301821741F062
:100BF000E0919201F0E0E758FE4F958F80939201CB
:100C0000FF91EF919F918F912F910F900FBE0F90B9
:100C10001F9018958081F4CF789484B5826084BD4C
:100C200084B5816084BD85B5826085BD85B58160F0
:100C300085BD80916E00816080936E00109281006E
:100C40008091810082608093810080918100816029
:100C500080938100809180008160809380008091EA
:100C6000B10084608093B1008091B0008160809376
:100C7000B00080917A00846080937A0080917A003D
:100C8000826080937A0080917A00816080937A00FC
:100C900080917A00806880937A001092C100E09180
:100CA0008901F0918A0182E08083E0918501F091D1
:100CB00086011082E0918701F09188018FEC80839A
:100CC00010929101E0918D01F0918E0186E0808378
:100CD000E0918B01F0918C01808180618083E091B3
:100CE0008B01F0918C01808188608083E0918B0181
:100CF000F0918C01808180688083E0918B01F0917C
:100D00008C0180818F7D808388E391E00E94F104D3
:100D100064EF71E080E090E00E9485038DE00E9426
:100D2000880061E08DE00E941403C5E2D1E005E196
:100D300011E068017E0198EEA92E93E0B92E25E31B
:100D4000E21621E0F20649F1F701619171917F010C
:100D5000C5010E94250A2B01770F66087708B301A9
:100D6000A201F601819191916F010E94A700C30138
:100D7000B2010E94030926E636E646EA5FE30E94D6
:100D800094090E94CB08072E000C880B990B0E9437
:100D9000850382E00E94B803D2CF64EF71E080E067
:100DA00090E00E94850385E491E00E94F1042FB752
:100DB000F8948091710190917201A0917301B091AA
:100DC00074012FBF88389341A105B105C8F40E9472
:100DD000030320916A0130916B012817390724F42D
:100DE00090936B0180936A01209100013091010181
:100DF00082179307E4F69093010180930001D7CF07
:100E000064EF71E080E090E00E9485038EE591E060
:100E10000E94F10488EEA82E83E0B82E21E0C533AD
:100E2000D20739F169917991C5010E94250A6B01B8
:100E3000770FEE08FF08B701A601F80181919191A3
:100E40008F010E94A700C701B6010E94030926E690
:100E500036E646EA5FE30E9494090E94CB08072E1B
:100E6000000C880B990B0E94850382E00E94B80356
:100E7000D5CF60E08DE00E94140364EF71E080E064
:100E800090E00E948503C0E0D0E00E9403038C0143
:100E900026E636E646E65FE360916C0170916D01EF
:100EA00080916E0190916F010E9494096B017C0109
:100EB000B801110F880B990B0E94030920ED3CEC3F
:100EC0004CEC5DE30E9494099B01AC01C701B601A3
:100ED0000E945F082B013C0140926C0150926D0111
:100EE00060926E0170926F01C0900001D09001017C
:100EF0000D2C000CEE08FF08C701B6010E94030983
:100F000026E636E646E65FE30E9494099B01AC01C3
:100F1000C301B2010E948F091816E4F580906A019E
:100F200090906B01092C000CAA08BB08C301B20108
:100F30000E94CB089B01770F440B550B28193909E8
:100F40004A095B09A4E9B8EF0E942808A7019601A5
:100F5000281939094A095B090E94FB07DA01C9010E
:100F60008053984FAF4FBF4F40E050E0BA010E940E
:100F7000A70061E070E080E090E00E948503209788
:100F800009F483CF0E944E04882309F47ECF0E9487
:100F900000007BCF82E00E94B803EBCFE9E7F1E0ED
:100FA0001382128288EE93E0A0E0B0E08483958300
:100FB000A683B78387E091E09183808385EC90E0FE
:100FC0009587848784EC90E09787868780EC90E013
:100FD000918B808B81EC90E0938B828B82EC90E004
:100FE000958B848B86EC90E0978B868B118E128E7E
:100FF000138E148E0895052E97FB1EF400940E9404
:10100000120857FD07D00E942D0807FC03D04EF4AC
:101010000C94120850954095309521953F4F4F4FB5
:101020005F4F089590958095709561957F4F8F4F94
:101030009F4F08950E944F08A59F900DB49F900D5B
:10104000A49F800D911D11240895B7FF0C941A08D8
:101050000E941A08821B930B0895A1E21A2EAA1B64
:10106000BB1BFD010DC0AA1FBB1FEE1FFF1FA21758
:10107000B307E407F50720F0A21BB30BE40BF50B55
:10108000661F771F881F991F1A9469F760957095DE
:10109000809590959B01AC01BD01CF010895A29F61
:1010A000B001B39FC001A39F700D811D1124911D3C
:1010B000B29F700D811D1124911D08955058BB27BA
:1010C000AA270E9476080C9455090E94470938F017
:1010D0000E944E0920F039F49F3F19F426F40C9435
:1010E00044090EF4E095E7FB0C943E09E92F0E94B9
:1010F000660958F3BA17620773078407950720F04B
:1011000079F4A6F50C9488090EF4E0950B2EBA2F0D
:10111000A02D0B01B90190010C01CA01A0011124FD
:10112000FF27591B99F0593F50F4503E68F11A16A9
:10113000F040A22F232F342F4427585FF3CF46953A
:1011400037952795A795F0405395C9F77EF41F165C
:10115000BA0B620B730B840BBAF09150A1F0FF0F26
:10116000BB1F661F771F881FC2F70EC0BA0F621F12
:10117000731F841F48F4879577956795B795F79502
:101180009E3F08F0B0CF9395880F08F09927EE0F97
:101190009795879508950E94D2086894B1110C9490
:1011A000890908950E946E0988F09F5798F0B92F19
:1011B0009927B751B0F0E1F0660F771F881F991F8C
:1011C0001AF0BA95C9F714C0B13091F00E9488099D
:1011D000B1E008950C948809672F782F8827B85FAD
:1011E00039F0B93FCCF3869577956795B395D9F7E4
:1011F0003EF490958095709561957F4F8F4F9F4FEE
:101200000895E89409C097FB3EF4909580957095F9
:1012100061957F4F8F4F9F4F9923A9F0F92F96E942
:10122000BB279395F695879577956795B795F111B7
:10123000F8CFFAF4BB0F11F460FF1BC06F5F7F4F54
:101240008F4F9F4F16C0882311F096E911C0772366
:1012500021F09EE8872F762F05C0662371F096E86F
:10126000862F70E060E02AF09A95660F771F881F3E
:10127000DAF7880F9695879597F9089597F99F67FC
:1012800080E870E060E008959FEF80EC089500240E
:101290000A941616170618060906089500240A94DB
:1012A00012161306140605060895092E0394000C61
:1012B00011F4882352F0BB0F40F4BF2B11F460FFF0
:1012C00004C06F5F7F4F8F4F9F4F089557FD905819
:1012D000440F551F59F05F3F71F04795880F97FBFA
:1012E000991F61F09F3F79F08795089512161306B4
:1012F0001406551FF2CF4695F1DF08C016161706E3
:101300001806991FF1CF8695710561050894089517
:10131000E894BB2766277727CB0197F908950E94A9
:10132000010A08F48FEF08950E94A7090C9455094B
:101330000E94470938F00E944E0920F0952311F0D1
:101340000C943E090C94440911240C9489090E94C0
:10135000660970F3959FC1F3950F50E0551F629F8A
:10136000F001729FBB27F00DB11D639FAA27F00DFE
:10137000B11DAA1F649F6627B00DA11D661F829F25
:101380002227B00DA11D621F739FB00DA11D621F0A
:10139000839FA00D611D221F749F3327A00D611D27
:1013A000231F849F600D211D822F762F6A2F112409
:1013B0009F5750409AF0F1F088234AF0EE0FFF1F3C
:1013C000BB1F661F771F881F91505040A9F79E3F93
:1013D000510580F00C943E090C9489095F3FE4F3B9
:1013E000983ED4F3869577956795B795F795E795E9
:1013F0009F5FC1F7FE2B880F911D9695879597F9F2
:101400000895990F0008550FAA0BE0E8FEEF161695
:101410001706E807F907C0F012161306E407F507E8
:1014200098F0621B730B840B950B39F40A2661F05C
:10143000232B242B252B21F408950A2609F4A140FF
:10144000A6958FEF811D811D089597FB072E16F439
:10145000009407D077FD09D00E94390A07FC05D017
:101460003EF4909581959F4F0895709561957F4FBB
:101470000895AA1BBB1B51E107C0AA1FBB1FA617DB
:10148000B70710F0A61BB70B881F991F5A95A9F72D
:1014900080959095BC01CD010895EE0FFF1F05903A
:0A14A000F491E02D0994F894FFCFB9
:1014AA00FF03FF000000008404E4031104D1044296
:1014BA000420043404DC00DC000601DC002601DC24
:1014CA00004A012601080008000800080008000870
:1014DA0000080008000D0A005374617274696E678F
:1014EA002075702E0043616C6962726174696F6E57
:1014FA0020696E2070726F67726573732E004C6577
:0A150A0074277320726F636B2E00CC
:00000001FF
